:020000040000FA
:100000000C945D000C9485000C9485000C94850084
:100010000C9485000C9485000C9485000C9485004C
:100020000C9485000C9485000C9485000C9485003C
:100030000C9485000C9485000C9485000C9485002C
:100040000C9463050C9485000C94D3050C94AD05B9
:100050000C9485000C9485000C9485000C9485000C
:100060000C9485000C94850000000008000201003B
:100070000003040700000000000000000000000072
:10008000250028002B0000000000240027002A0083
:10009000040404040404040402020202020203032E
:1000A0000303030301020408102040800102040836
:1000B0001020010204081020050611241FBECFEFF6
:1000C000D8E0DEBFCDBF22E0A8E3B1E001C01D92C1
:1000D000A634B207E1F711E0A0E0B1E0E8E9F4E10D
:1000E00002C005900D92A833B107D9F710E0CDE515
:1000F000D0E004C02197FE010E94440ACC35D1070C
:10010000C9F70E94B4060C944A0A0C94000090E0CF
:10011000FC01EC55FF4F249180579F4FFC018491C7
:10012000882399F090E0880F991FFC01EA57FF4F50
:10013000A591B491FC01E458FF4F859194918FB73C
:10014000F894EC91E22BEC938FBF089590E0FC01C2
:10015000E859FF4F2491FC01EC55FF4F3491FC010D
:10016000E057FF4FE491EE23C9F0222339F023300A
:1001700001F1A8F4213019F1223029F1F0E0EE0F5D
:10018000FF1FE458FF4FA591B4918FB7F894EC91FD
:10019000611126C030953E233C938FBF08952730D0
:1001A000A9F02830C9F0243049F7809180008F7D74
:1001B00003C0809180008F7780938000DFCF84B56B
:1001C0008F7784BDDBCF84B58F7DFBCF8091B0006E
:1001D0008F778093B000D2CF8091B0008F7DF9CF20
:1001E0003E2BDACF3FB7F8948091390190913A01D4
:1001F000A0913B01B0913C0126B5A89B05C02F3FC3
:1002000019F00196A11DB11D3FBFBA2FA92F982F3C
:100210008827BC01CD01620F711D811D911D42E037
:10022000660F771F881F991F4A95D1F70895AF92DF
:10023000BF92CF92DF92EF92FF920F931F93CF93D3
:10024000DF936C017B018B01040F151FEB015E0135
:10025000AE18BF08C017D10759F06991D601ED91CA
:10026000FC910190F081E02DC6010995892B79F769
:10027000C501DF91CF911F910F91FF90EF90DF901B
:10028000CF90BF90AF900895FC01538D448D252FE2
:1002900030E0842F90E0821B930B541710F0CF9620
:1002A000089501970895FC01918D828D981761F052
:1002B000A28DAE0FBF2FB11D5D968C91928D9F5F69
:1002C0009F73928F90E008958FEF9FEF0895FC0148
:1002D000918D828D981731F0828DE80FF11D858DFB
:1002E00090E008958FEF9FEF08952FB7F8948091D5
:1002F0003D0190913E01A0913F01B09140012FBF7F
:100300008093490190934A01A0934B01B0934C0113
:1003100081E491E00E94670197FF26C02FB7F8940F
:1003200080913D0190913E01A0913F01B09140012B
:100330002FBF4091490150914A0160914B0170914A
:100340004C01841B950BA60BB70B409145015091B6
:100350004601609147017091480184179507A607EF
:10036000B707B0F28FEF9FEF08958F929F92AF92F1
:10037000BF92CF92DF92EF92FF92CF93DF930E94D2
:100380007501FC0197FD88C08D32910509F04CC0C4
:10039000812C912C80E8A82E8FE3B82EC12CD12C73
:1003A0007601C0E0D0E0E130F10559F1ED32F10520
:1003B00009F447C0EE32F10509F445C0CF01C097FA
:1003C0000A97F8F4AAE0B0E0A70196010E94E908B4
:1003D0006F01FF0FEE08FF08C60ED71EE81EF91EBC
:1003E00080E3C81AD108E108F108CC2351F02DECC4
:1003F0003CEC4CEC5DE3C501B4010E942B084B01C1
:100400005C0181E491E00E9453010E947501FC01AE
:10041000C0970A9740F2EE32F105B9F4CC2319F2F5
:10042000CD2FD11118C025C0C0970A9708F4B0CFBE
:10043000EE32F10509F4ACCF81E491E00E94530162
:100440009ECFD1E0DECFC1E0DCCFE130F10509F491
:10045000AACFDD2341F0F094E094D094C094C11C65
:10046000D11CE11CF11CC701B6010E94CC07CC23B2
:1004700041F0C701B6010E94CC07A50194010E947A
:100480002B08DF91CF91FF90EF90DF90CF90BF903E
:10049000AF909F908F90089560E070E0CB01F1CF16
:1004A000FC01918D228D892F90E0805C9F4F821BF3
:1004B00091098F739927089581E491E00E94500279
:1004C00021E0892B09F420E0822F089580E090E05C
:1004D000892B29F00E945C0281110C940000089580
:1004E000FC01A48DA80FB92FB11DA35ABF4F2C91A9
:1004F000848D90E001968F739927848FA689B789A0
:100500002C93A089B1898C91837080648C93938D96
:10051000848D981306C00288F389E02D80818F7D39
:1005200080830895EF92FF920F931F93CF93DF93F1
:10053000EC0181E0888F9B8D8C8D98131AC0E8891F
:10054000F989808185FF15C09FB7F894EE89FF89EE
:100550006083E889F98980818370806480839FBF8C
:1005600081E090E0DF91CF911F910F91FF90EF908C
:100570000895F62E0B8D10E00F5F1F4F0F7311279C
:10058000E02E8C8D8E110CC00FB607FCFACFE889D7
:10059000F989808185FFF5CFCE010E947002F1CFED
:1005A000EB8DEC0FFD2FF11DE35AFF4FF0829FB74B
:1005B000F8940B8FEA89FB8980818062CFCFCF933B
:1005C000DF93EC01888D8823B9F0AA89BB89E8897B
:1005D000F9898C9185FD03C0808186FD0DC00FB621
:1005E00007FCF7CF8C9185FFF2CF808185FFEDCF9F
:1005F000CE010E947002E9CFDF91CF9108958F92D2
:100600009F92AF92BF92CF92DF92EF92FF920F93A1
:100610001F93CF93DF938C016A017B0120E030E0D0
:1006200040E85FEBCB01B6010E94C50787FD87C09C
:1006300020E030E040E85FE3C701B6010E94180AFD
:1006400018160CF483C020E030E0A901C701B60100
:100650000E94180A46015701181634F04601570146
:10066000F7FAF094F7F8F094A7019601F801618584
:100670007285838594850E94180A18161CF4812CB3
:10068000912C5401F8018085882321F0B7FAB094A9
:10069000B7F8B094F801C28120E030E0A901C501AB
:1006A000B4010E94180A61E018160CF458C020E04A
:1006B00030E0A901C501B4010E94C50760E087FDD3
:1006C00008C0F8018681978160E0019709F047C072
:1006D00061E08C2F0E94A60061E0F80184810E94F5
:1006E000A60020E030E04FE753E4C501B4010E94CA
:1006F0002B086B017C0120E030E0A9010E94180A60
:10070000181694F5C701B6010E94E209EB01F80141
:1007100000811181802F0E948700209749F560E0B9
:10072000802FDF91CF911F910F91FF90EF90DF907D
:10073000CF90BF90AF909F908F900C94A600C12C4B
:10074000D12C90E8E92E9FEBF92E88CF812C912CAB
:1007500080E8A82E8FE3B82E7501640185CF8C2F19
:100760000E94A60060E0B9CFC701B6019058CCCF77
:10077000CF3FD10511F461E0D3CFF801FF27E8594D
:10078000FF4FE491E33079F140F4E130B1F0E23031
:1007900029F1C038D1057CF7C2CFE73071F1E830DC
:1007A000A1F1E430B1F780918000806280938000F5
:1007B000D0938B00C0938A0004C084B5806884BD48
:1007C000C7BDDF91CF911F910F91FF90EF90DF9008
:1007D000CF90BF90AF909F908F90089584B5806226
:1007E00084BDC8BDEECF809180008068809380007A
:1007F000D0938900C0938800E4CF8091B0008068D6
:100800008093B000C093B300DCCF8091B0008062D1
:100810008093B000C093B400D4CF0F931F93CF93B5
:10082000DF93EC01862F042F122F688379834A838C
:100830005B832C833D8321E030E03F832E83188649
:1008400019861A861B861C860E948700802F0E94AC
:100850008700812F0E94870040E050E0BA01CE015E
:10086000DF91CF911F910F910C94FF02FC01019039
:100870000020E9F73197AF01481B590BBC0181E417
:1008800091E00C9417018F929F92AF92BF920F93B9
:100890001F93CF93DF93CDB7DEB7A1970FB6F89430
:1008A000DEBF0FBECDBF19A2423008F44AE08E0170
:1008B0000F5D1F4F842E912CB12CA12CA50194010A
:1008C0000E94220AE62FB901CA01EA30F4F4E05D81
:1008D000D801EE938D01232B242B252B79F790E063
:1008E00080E0109719F0CD010E943604A1960FB652
:1008F000F894DEBF0FBECDBFDF91CF911F910F9156
:10090000BF90AF909F908F900895E95CE1CF4F9298
:100910005F926F927F928F929F92AF92BF92CF928F
:10092000DF92EF92FF920F931F93CF936B017C01A5
:10093000742EAC019B010E941D0A882399F082E16C
:1009400091E0CF911F910F91FF90EF90DF90CF90AA
:10095000BF90AF909F908F907F906F905F904F90DF
:100960000C94360446015701E894B7F82FEF3FEF97
:100970004FE75FE7C501B4010E941D0A81110DC058
:100980002FEF3FEF4FE75FE7C501B4010E94C507B6
:1009900018161CF486E191E0D4CF2FEF3FEF4FE71C
:1009A0005FE4C701B6010E94180A18161CF48AE118
:1009B00091E0C7CF2FEF3FEF4FE75FECC701B601E4
:1009C0000E94C50787FDF3CF20E030E0A901C701F1
:1009D000B6010E94C50710E000E087FF0AC06DE283
:1009E00081E491E00E9492028C01F7FAF094F7F80A
:1009F000F094C0E060E070E080E09FE37C1641F09E
:100A000020E030E040E251E40E947009CF5FF6CF71
:100A1000A70196010E9404092B013C010E94E909EB
:100A20004B015C014AE00E9443047C01E00EF11E90
:100A3000CC23C1F1C501B4010E94CA079B01AC01DE
:100A4000C301B2010E9403094B015C016EE281E423
:100A500091E00E949202E80EF91EC15018F120E0C8
:100A600030E040E251E4C501B4010E942B082B01A3
:100A70003C010E94E9094B01B12CA12C4AE0C501BF
:100A8000B4010E944304E80EF91EC501B4010E949E
:100A9000CA079B01AC01C301B2010E9403094B01CB
:100AA0005C01DBCFC701CF911F910F91FF90EF90B9
:100AB000DF90CF90BF90AF909F908F907F906F907E
:100AC0005F904F9008951F920F920FB60F921124CE
:100AD0002F933F938F939F93AF93BF9380913D014B
:100AE00090913E01A0913F01B091400130913801B9
:100AF00023E0230F2D3758F50196A11DB11D20933A
:100B0000380180933D0190933E01A0933F01B09343
:100B100040018091390190913A01A0913B01B0913F
:100B20003C010196A11DB11D8093390190933A01BA
:100B3000A0933B01B0933C01BF91AF919F918F91E6
:100B40003F912F910F900FBE0F901F90189526E8A0
:100B5000230F0296A11DB11DD2CF1F920F920FB687
:100B60000F9211242F933F934F935F936F937F9333
:100B70008F939F93AF93BF93EF93FF9381E491E0A3
:100B80000E947002FF91EF91BF91AF919F918F9161
:100B90007F916F915F914F913F912F910F900FBE79
:100BA0000F901F9018951F920F920FB60F9211245D
:100BB0002F938F939F93EF93FF93E0915101F091C7
:100BC00052018081E0915701F091580182FD1BC0D4
:100BD000908180915A018F5F8F7320915B01821702
:100BE00041F0E0915A01F0E0EF5BFE4F958F80936A
:100BF0005A01FF91EF919F918F912F910F900FBE0E
:100C00000F901F9018958081F4CFCF93DF93CDB7CD
:100C1000DEB7E4970FB6F894DEBF0FBECDBFE1E4B8
:100C2000F1E01382128288EE93E0A0E0B0E08483CA
:100C30009583A683B78384E091E09183808385ECDC
:100C400090E09587848784EC90E09787868780EC96
:100C500090E0918B808B81EC90E0938B828B82EC87
:100C600090E0958B848B86EC90E0978B868B118E31
:100C7000128E138E148E24E030E042E050E063E0E8
:100C800070E089E392E00E940D0428E030E047E044
:100C900050E065E070E08CE292E00E940D042BE0F1
:100CA00030E04AE050E066E070E08FE192E00E94C0
:100CB0000D042DE030E04CE050E069E070E082E1AE
:100CC00092E00E940D048DE0E9E3F2E0DE0111966E
:100CD00001900D928A95E1F78DE0ECE2F2E0DE0101
:100CE0001E9601900D928A95E1F78DE0EFE1F2E01A
:100CF000DE015B9601900D928A95E1F78DE0E2E1CD
:100D0000F2E0DE01989601900D928A95E1F78DE070
:100D1000FE013196AEEDB1E001900D928A95E1F7BA
:100D20008DE0FE013E96ABEEB1E001900D928A950A
:100D3000E1F78DE0FE017B96A8EFB1E001900D9206
:100D40008A95E1F78DE0FE01B896A5E0B2E001904A
:100D50000D928A95E1F7E4960FB6F894DEBF0FBEC8
:100D6000CDBFDF91CF910895789484B5826084BD22
:100D700084B5816084BD85B5826085BD85B581609F
:100D800085BD80916E00816080936E00109281001D
:100D900080918100826080938100809181008160D8
:100DA0008093810080918000816080938000809199
:100DB000B10084608093B1008091B0008160809325
:100DC000B00080917A00846080937A0080917A00EC
:100DD000826080937A0080917A00816080937A00AB
:100DE00080917A00806880937A001092C100E0912F
:100DF0005101F091520182E08083E0914D01F09128
:100E00004E011082E0914F01F09150018FEC8083F0
:100E100010925901E0915501F091560186E08083CE
:100E2000E0915301F0915401808180618083E091D1
:100E30005301F0915401808188608083E0915301D7
:100E4000F0915401808180688083E0915301F0919A
:100E5000540180818F7D8083C0E0D0E081E491E007
:100E60000E945002181619060CF084C00E94B501A9
:100E70002B013C010E94B5016B017C010E94B50170
:100E80004B015C018EE191E00E94360442E0C30117
:100E9000B2010E94870482E291E00E94360442E09F
:100EA000C701B6010E94870488E291E00E943604DF
:100EB00042E0C501B4010E94870485E391E00E94ED
:100EC0003604B701A60189E392E00E94FF02B70150
:100ED000A6018CE292E00E94FF02B701A6018FE119
:100EE00092E00E94FF02B701A60182E192E00E9417
:100EF000FF020E94F2004B015C0188E5C82E82E0EF
:100F0000D82EE12CF12C0E94F200681979098A0987
:100F10009B09683E734081059105A8F321E0C21A40
:100F2000D108E108F10888EE880E83E0981EA11C24
:100F3000B11CC114D104E104F10429F740E050E0F0
:100F4000BA018EED91E00E94FF0240E050E0BA014C
:100F50008BEE91E00E94FF0240E050E0BA0188EF82
:100F600091E00E94FF0240E050E0BA0185E092E08B
:100F70000E94FF02209709F471CF0E945C0288232F
:100F800009F46CCF0E94000069CF0E94070808F4A2
:100F900081E00895E89409C097FB3EF49095809510
:100FA000709561957F4F8F4F9F4F9923A9F0F92F2F
:100FB00096E9BB279395F695879577956795B795AD
:100FC000F111F8CFFAF4BB0F11F460FF1BC06F5F93
:100FD0007F4F8F4F9F4F16C0882311F096E911C0A5
:100FE000772321F09EE8872F762F05C0662371F0C6
:100FF00096E8862F70E060E02AF09A95660F771FDA
:10100000881FDAF7880F9695879597F90895990FB5
:101010000008550FAA0BE0E8FEEF16161706E807C2
:10102000F907C0F012161306E407F50798F0621BE3
:10103000730B840B950B39F40A2661F0232B242BB8
:10104000252B21F408950A2609F4A140A6958FEFD7
:10105000811D811D08950E943E080C94AF080E94D6
:10106000A10838F00E94A80820F0952311F00C94F4
:1010700098080C949E0811240C94E3080E94C00860
:1010800070F3959FC1F3950F50E0551F629FF001DB
:10109000729FBB27F00DB11D639FAA27F00DB11DF4
:1010A000AA1F649F6627B00DA11D661F829F22277D
:1010B000B00DA11D621F739FB00DA11D621F839F04
:1010C000A00D611D221F749F3327A00D611D231FDA
:1010D000849F600D211D822F762F6A2F11249F5728
:1010E00050409AF0F1F088234AF0EE0FFF1FBB1F2B
:1010F000661F771F881F91505040A9F79E3F5105EA
:1011000080F00C9498080C94E3085F3FE4F3983E59
:10111000D4F3869577956795B795F795E7959F5F93
:10112000C1F7FE2B880F911D9695879597F9089525
:1011300097F99F6780E870E060E008959FEF80EC8A
:10114000089500240A94161617061806090608952D
:1011500000240A9412161306140605060895092E93
:101160000394000C11F4882352F0BB0F40F4BF2B02
:1011700011F460FF04C06F5F7F4F8F4F9F4F089542
:1011800057FD9058440F551F59F05F3F71F0479538
:10119000880F97FB991F61F09F3F79F0879508951D
:1011A000121613061406551FF2CF4695F1DF08C03C
:1011B000161617061806991FF1CF86957105610559
:1011C00008940895E894BB2766277727CB0197F901
:1011D00008950E94F408A59F900DB49F900DA49FC0
:1011E000800D911D11240895A29FB001B39FC001ED
:1011F000A39F700D811D1124911DB29F700D811D43
:101200001124911D08955058BB27AA270E941B093D
:101210000C94AF080E94A10838F00E94A80820F0A2
:1012200039F49F3F19F426F40C949E080EF4E095CF
:10123000E7FB0C949808E92F0E94C00858F3BA17EE
:10124000620773078407950720F079F4A6F50C94DC
:10125000E2080EF4E0950B2EBA2FA02D0B01B90178
:1012600090010C01CA01A0011124FF27591B99F01C
:10127000593F50F4503E68F11A16F040A22F232F28
:10128000342F4427585FF3CF469537952795A79578
:10129000F0405395C9F77EF41F16BA0B620B730B1F
:1012A000840BBAF09150A1F0FF0FBB1F661F771F90
:1012B000881FC2F70EC0BA0F621F731F841F48F445
:1012C000879577956795B795F7959E3F08F0B0CFCE
:1012D0009395880F08F09927EE0F979587950895B5
:1012E0000E9484090C94AF080E94A80858F00E943C
:1012F000A10840F029F45F3F29F00C94980851119F
:101300000C94E3080C949E080E94C00868F399238B
:10131000B1F3552391F3951B550BBB27AA276217F1
:101320007307840738F09F5F5F4F220F331F441FFE
:10133000AA1FA9F335D00E2E3AF0E0E832D0915032
:101340005040E695001CCAF72BD0FE2F29D0660F1F
:10135000771F881FBB1F261737074807AB07B0E862
:1013600009F0BB0B802DBF01FF2793585F4F3AF068
:101370009E3F510578F00C9498080C94E3085F3F69
:10138000E4F3983ED4F3869577956795B795F795EE
:101390009F5FC9F7880F911D9695879597F90895D6
:1013A000E1E0660F771F881FBB1F62177307840772
:1013B000BA0720F0621B730B840BBA0BEE1F88F781
:1013C000E09508950E94E9096894B1110C94E3082E
:1013D00008950E94C80888F09F5798F0B92F992760
:1013E000B751B0F0E1F0660F771F881F991F1AF010
:1013F000BA95C9F714C0B13091F00E94E208B1E08B
:1014000008950C94E208672F782F8827B85F39F089
:10141000B93FCCF3869577956795B395D9F73EF4A8
:1014200090958095709561957F4F8F4F9F4F089550
:101430000E94070808F48FEF08950E940708880BA0
:10144000990B0895A1E21A2EAA1BBB1BFD010DC02A
:10145000AA1FBB1FEE1FFF1FA217B307E407F50764
:1014600020F0A21BB30BE40BF50B661F771F881F40
:10147000991F1A9469F760957095809590959B01D6
:10148000AC01BD01CF010895EE0FFF1F0590F4914F
:10149000E02D0994F894FFCF00000000920217019C
:1014A0004401DF025002530167016E616E00696EF4
:1014B00066006F766600783A20002C20793A20008A
:1014C0002C20726F746174696F6E3A20000D0A00EF
:107800000C94343C0C94513C0C94513C0C94513CE1
:107810000C94513C0C94513C0C94513C0C94513CB4
:107820000C94513C0C94513C0C94513C0C94513CA4
:107830000C94513C0C94513C0C94513C0C94513C94
:107840000C94513C0C94513C0C94513C0C94513C84
:107850000C94513C0C94513C0C94513C0C94513C74
:107860000C94513C0C94513C11241FBECFEFD8E036
:10787000DEBFCDBF11E0A0E0B1E0ECE9FFE702C060
:1078800005900D92A230B107D9F712E0A2E0B1E065
:1078900001C01D92AD30B107E1F70E942D3D0C945F
:1078A000CC3F0C94003C982F959595959595959582
:1078B000905D8F708A307CF0282F295A8091C0000B
:1078C00085FFFCCF9093C6008091C00085FFFCCF60
:1078D0002093C6000895282F205DF0CF982F809127
:1078E000C00085FFFCCF9093C6000895EF92FF92F1
:1078F0000F931F93EE24FF2487018091C00087FD22
:1079000017C00894E11CF11C011D111D81E4E8164B
:1079100082E4F8068FE0080780E0180770F3E09132
:107920000401F091050109958091C00087FFE9CF1E
:107930008091C6001F910F91FF90EF9008950E94D3
:10794000763C982F8091C00085FFFCCF9093C600B5
:1079500091362CF490330CF09053892F089597555D
:10796000892F08951F930E949F3C182F0E949F3CCF
:107970001295107F810F1F9108951F93182F882350
:1079800021F00E94763C1150E1F71F9108951F935A
:10799000182F0E94763C803249F0809103018F5F5E
:1079A000809303018530C1F01F9108958091C0003C
:1079B00085FFFCCF84E18093C6008091C00085FFE5
:1079C000FCCF1093C6008091C00085FFFCCF80E102
:1079D0008093C6001F910895E0910401F091050184
:1079E00009951F9108950E94763C803241F0809164
:1079F00003018F5F80930301853081F008958091AA
:107A0000C00085FFFCCF84E18093C6008091C00058
:107A100085FFFCCF80E18093C6000895E0910401CA
:107A2000F09105010995089540E951E08823A1F0FE
:107A30002D9A28EE33E0FA013197F1F721503040CA
:107A4000D1F72D9828EE33E0FA013197F1F7215064
:107A50003040D1F7815061F708953F924F925F9285
:107A60006F927F928F929F92AF92BF92CF92DF924E
:107A7000EF92FF920F931F93CF93DF93000080E16B
:107A80008093C4001092C50088E18093C10086E015
:107A90008093C2005098589A259A81E00E94143D24
:107AA00024E1F22E9EE1E92E85E9D82E0FE0C02ECA
:107AB00010E1B12EAA24A394B1E49B2EA6E58A2E50
:107AC000F2E57F2EE0E26E2E79E4572E63E5462E36
:107AD00050E5352E0E94763C8033B1F18133B9F107
:107AE000803409F46FC0813409F476C0823409F41B
:107AF00085C0853409F488C0803531F1823521F1A3
:107B0000813511F1853509F485C0863509F48DC0BC
:107B1000843609F496C0843709F403C1853709F423
:107B200072C1863709F466C0809103018F5F80932C
:107B30000301853079F6E0910401F0910501099582
:107B40000E94763C803351F60E94F33CC3CF0E94E2
:107B5000763C803249F78091C00085FFFCCFF092DF
:107B6000C6008091C00085FFFCCF9092C600809136
:107B7000C00085FFFCCF8092C6008091C00085FFC9
:107B8000FCCF7092C6008091C00085FFFCCF609250
:107B9000C6008091C00085FFFCCF5092C600809146
:107BA000C00085FFFCCF4092C6008091C00085FFD9
:107BB000FCCF3092C6008091C00085FFFCCFB09210
:107BC000C60088CF0E94763C863808F4BDCF0E945C
:107BD000763C0E94F33C7ECF0E94763C803809F4CC
:107BE0009CC0813809F40BC1823809F43CC1883942
:107BF00009F48FC080E00E94C73C6CCF84E10E94F2
:107C0000BD3C0E94F33C66CF85E00E94BD3C0E94D3
:107C1000F33C60CF0E94763C809306010E94763C44
:107C2000809307010E94F33C55CF0E94763C80333D
:107C300009F41DC183E00E94BD3C80E00E94C73C66
:107C400049CF0E94763C809309020E94763C809343
:107C5000080280910C028E7F80930C020E94763C79
:107C6000853409F415C18091080290910902892B8D
:107C700089F000E010E00E94763CF801E85FFE4FDA
:107C800080830F5F1F4F80910802909109020817AF
:107C9000190788F30E94763C803209F045CF809125
:107CA0000C0280FF01C16091060170910701660F0F
:107CB000771F7093070160930601A0910802B091AD
:107CC00009021097C9F0E8E0F1E09B01AD014E0F09
:107CD0005F1FF999FECF32BD21BD819180BDFA9A17
:107CE000F99A2F5F3F4FE417F50799F76A0F7B1F4B
:107CF00070930701609306018091C00085FFFCCF5F
:107D0000F092C6008091C00085FFFCCFB092C60003
:107D1000E1CE83E00E94C73CDDCE82E00E94C73CFA
:107D2000D9CE0E94763C809309020E94763C8093D3
:107D300008028091060190910701880F991F909386
:107D40000701809306010E94763C853409F4A6C0A1
:107D500080910C028E7F80930C020E94763C8032D0
:107D600009F0B8CE8091C00085FFFCCFF092C6002C
:107D7000609108027091090261157105B9F140E046
:107D800050E080910C02A82FA170B82FB27011C0E2
:107D9000BB2309F45CC0E0910601F0910701319624
:107DA000F0930701E09306014F5F5F4F46175707B7
:107DB000E8F4AA2369F3F999FECF209106013091E6
:107DC000070132BD21BDF89A90B58091C00085FFB2
:107DD000FCCF9093C6002F5F3F4F30930701209355
:107DE00006014F5F5F4F4617570718F38091C00099
:107DF00085FDE5CE8091C00085FFF8CFE0CE81E023
:107E00000E94C73C67CE0E94763C803209F08CCE3F
:107E10008091C00085FFFCCFF092C6008091C00029
:107E200085FFFCCFE092C6008091C00085FFFCCFAB
:107E3000D092C6008091C00085FFFCCFC092C600E2
:107E40008091C00085FFFCCFB092C60043CEE09188
:107E50000601F091070194918091C00085FFFCCF4D
:107E60009093C6009CCF80E10E94C73C33CE0E9415
:107E7000763C0E94763C182F0E94763C112309F430
:107E800083C0113009F484C08FE00E94C73C22CE29
:107E900080910C02816080930C02E5CE80910C02EF
:107EA000816080930C0259CF809107018823880F4D
:107EB000880B8A2180930B02809106019091070123
:107EC000880F991F90930701809306018091080203
:107ED00080FF09C080910802909109020196909359
:107EE000090280930802F894F999FECF1127E091D6
:107EF0000601F0910701C8E0D1E08091080290915D
:107F00000902103091F40091570001700130D9F34B
:107F100003E000935700E89500915700017001308D
:107F2000D9F301E100935700E89509901990009169
:107F3000570001700130D9F301E000935700E89534
:107F40001395103498F011270091570001700130FB
:107F5000D9F305E000935700E895009157000170B0
:107F60000130D9F301E100935700E895329602976A
:107F700009F0C7CF103011F00296E5CF112480919F
:107F8000C00085FFB9CEBCCE8EE10E94C73CA2CD19
:0E7F900085E90E94C73C9ECDF894FFCF80008B
:00000001FF
